:10E000005542200135D0085A8245000231400003B4
:10E010003F4000000F9308249242000220012F830A
:10E020009F4F72E00002F8233F4000000F93072447
:10E030009242000220011F83CF430002F923218373
:10E04000B240805A2001D2432200C2432100D2E3D1
:10E05000210081430000023C915300002F413F907A
:10E060000060FA3BF43F32D0F000FD3F304070E0FA
:02E0700000139B
:10FFE0006CE06CE06CE06CE06CE06CE06CE06CE0B1
:10FFF0006CE06CE06CE06CE06CE06CE06CE000E00D
:040000030000E00019
:00000001FF
